:100000001BC100004AC1000048C1000046C10000F9
:1000100044C1000042C1000040C100003EC10000D8
:100020003CC100003AC1000038C1000036C10000E8
:1000300034C1000032C1000030C100002EC10000F8
:100040002CC100002AC1000028C1000026C1000008
:1000500024C1000022C1000020C1000041C30000F3
:100060001CC10000C3C2000098C2000016C10000FD
:1000700014C1000012C1000010C100000EC1000038
:100080000CC100000AC1000008C1000006C1000048
:1000900004C1000002C1000000C10000FEC0000059
:1000A000FCC00000FAC00000F8C00000F6C000006C
:1000B000F4C00000F2C00000F0C00000EEC000007C
:1000C000ECC00000EAC00000E8C00000E6C000008C
:1000D000E4C00000E2C00000E0C00000DEC000009C
:1000E000DCC00000A606A90698069C06A006E0064D
:1000F000AD06B106B706BB06BF06C506C906CD06E6
:10010000E006D306D706DB06537461746963206981
:10011000702061646472657373696E6700436F6E0B
:100120006E656374696F6E206661696C656400005A
:10013000000A0B02090C0D0E080703040100000061
:1001400000000000000000000000000000000000AF
:10015000000000000000000000000012111000006C
:10016000000000000000000000000000000000008F
:10017000000000000000002200250028002B002EB7
:10018000003100340002010000050108010B0100EC
:10019000002100240027002A002D00300033000138
:1001A000010000040107010A01050505050705080E
:1001B000080808020202020A0A08080404040401EA
:1001C000010101010101010303030303030303040C
:1001D0000707070C0C0C0C0C0C0C0C02020202069C
:1001E000060606060606060B0B0B0B0B0B0B0B018C
:1001F0000210202008081020401020408002010238
:1002000001080402010102040810204080804020FF
:10021000100804020180040201804020100804023A
:1002200001080402010102040810204080010204B8
:10023000081020408000071211241FBECFEFD1E22A
:10024000DEBFCDBF00E00CBF13E0A0E0B2E0E6EC03
:10025000F5E200E00BBF02C007900D92A633B10794
:10026000D9F724E0A6E3B3E001C01D92AB38B20792
:10027000E1F711E0CCE1D1E000E006C021970109EF
:10028000802FFE010E94B312CB31D10780E0080716
:10029000A9F70E9479100C94E112B2CEFC01918D65
:1002A000828D981761F0828DDF01A80FB11D5D96D8
:1002B0008C91928D9F5F9F73928F90E008958FEF46
:1002C0009FEF0895FC01918D828D981731F0828DFA
:1002D000E80FF11D858D90E008958FEF9FEF089551
:1002E000FC01918D228D892F90E0805C9F4F821BB5
:1002F00091098F739927089581E993E0F1DF21E057
:10030000892B09F420E0822F0895FC01848DDF0100
:10031000A80FB11DA35ABF4F2C91848D90E0019678
:100320008F739927848FA689B7892C93A089B18967
:100330008C9180648C93938D848D981306C0028871
:10034000F389E02D80818F7D80830895EF92FF9265
:100350000F931F93CF93DF93EC0181E0888F9B8DE8
:100360008C8D981305C0E889F989808185FD23C0AB
:10037000F62E0B8D10E00F5F1F4F0F731127E02E2D
:100380008C8DE8120BC00FB607FCFACFE889F9890B
:10039000808185FFF5CFCE01B8DFF2CF8B8DFE01D6
:1003A000E80FF11DE35AFF4FF0820B8FEA89FB89BA
:1003B0008081806207C0EE89FF896083E889F989BE
:1003C00080818064808381E090E0DF91CF911F91F4
:1003D0000F91FF90EF900895CF93DF93EC01888DFC
:1003E0008823C1F0EA89FB89808185FD05C0A88941
:1003F000B9898C9186FD0EC00FB607FCF5CF8081C0
:1004000085FFF2CFA889B9898C9185FFEDCFCE0108
:100410007CDFE8CFDF91CF91089580E090E0892BD9
:1004200019F06ADF811125C080E090E0892B41F04E
:1004300080E090E0892B21F00E94000081111CC017
:1004400080E090E0892B41F080E090E0892B21F062
:100450000E940000811113C080E090E0892BA1F080
:1004600080E090E0892B81F00E94000081110AC099
:1004700008950E940000D8CF0E940000E1CF0E94A2
:100480000000EACF0C94000008953FB7F8948091E3
:100490003D0390913E03A0913F03B091400326B5E8
:1004A000A89B05C02F3F19F00196A11DB11D3FBFAC
:1004B000BA2FA92F982F8827820F911DA11DB11D3A
:1004C000BC01CD0142E0660F771F881F991F4A9536
:1004D000D1F7089508958F929F92AF92BF92CF92D5
:1004E000DF92EF92FF920F931F93CF93DF937C01E4
:1004F000EB016C0182E0C80ED11C4701E5E08E0ED5
:10050000911C00E010E0F60141916F0150E060E0C5
:1005100070E02AE0CE014AD65C01E881F9810190C1
:10052000F081E02D6EE2CE0119958A0D9B1D080F1A
:10053000191FC814D90439F7F701458150E060E06C
:1005400070E02AE0CE0132D6800F911FDF91CF916B
:100550001F910F91FF90EF90DF90CF90BF90AF90E1
:100560009F908F9008950E94BB121F93CF93DF93AB
:10057000182F66E270E00E94220FC82FD0E067E2D9
:1005800070E0812F0E94220FDC2FCC279E01282BA8
:10059000C901DF91CF911F9108951F920F920FB65D
:1005A0000F9211240BB60F922F933F934F935F93AB
:1005B0006F937F938F939F93AF93BF93EF93FF932B
:1005C00081E993E0A2DEFF91EF91BF91AF919F91FE
:1005D0008F917F916F915F914F913F912F910F90EC
:1005E0000BBE0F900FBE0F901F9018951F920F9289
:1005F0000FB60F9211240BB60F922F938F939F93E8
:10060000EF93FF93E091A103F091A2038081E09129
:10061000A703F091A80382FD12C090818091AA03E4
:100620008F5F8F732091AB03821751F0E091AA0383
:10063000F0E0EF56FC4F958F8093AA0301C08081B4
:10064000FF91EF919F918F912F910F900BBE0F9083
:100650000FBE0F901F9018958F929F92AF92BF92EE
:10066000CF92DF92EF92FF926B017C010EDF4B0184
:100670005C01C114D104E104F104E9F006DFDC01FE
:10068000CB0188199909AA09BB09883E9340A105A5
:10069000B10578F321E0C21AD108E108F10888EE2B
:1006A000880E83E0981EA11CB11CC114D104E10482
:1006B000F10421F7DECFFF90EF90DF90CF90BF9055
:1006C000AF909F908F9008952FB7F8946091390361
:1006D00070913A0380913B0390913C032FBF0895A2
:1006E0001F920F920FB60F9211242F933F938F9367
:1006F0009F93AF93BF938091390390913A03A09158
:100700003B03B0913C033091380323E0230F2D3796
:1007100020F40196A11DB11D05C026E8230F029605
:10072000A11DB11D209338038093390390933A03A0
:10073000A0933B03B0933C0380913D0390913E0313
:10074000A0913F03B09140030196A11DB11D80937C
:100750003D0390933E03A0933F03B0934003BF91AA
:10076000AF919F918F913F912F910F900FBE0F905E
:100770001F9018952C9A08952C9808951F93CF9345
:10078000DF93182F60E270E00E94220FC82FD0E0A4
:1007900061E270E0812F0E94220FDC2FCC279E01A6
:1007A000282BC901DF91CF911F9108958EBD0000C4
:1007B0000DB407FEFDCF8EB50895CF92DF92EF9274
:1007C000FF920F931F93CF93DF93EC017A018B017C
:1007D0006C01C40ED51ECC15DD0579F0CDDF8FE0A0
:1007E000E5DF8D2FE3DF8C2FE1DF219680E0DEDF78
:1007F000F80181938F01BEDFEECFC701DF91CF916A
:100800001F910F91FF90EF90DF90CF900895CF92BE
:10081000DF92EF92FF920F931F93CF93DF93EC0140
:100820007A018B016C01C40ED51ECC15DD0571F06B
:10083000A3DF80EFBBDF8D2FB9DF8C2FB7DF2196D1
:10084000F80181918F01B2DF95DFEFCFC701DF9112
:10085000CF911F910F91FF90EF90DF90CF9008956F
:100860001F93CF93DF931F921F92CDB7DEB7182F40
:100870006A83998381DF80EF99DF9981892F96DFE1
:10088000812F94DF6A81862F91DF74DF81E00F90E2
:100890000F90DF91CF911F9108951F93CF93DF9316
:1008A0001F921F92CDB7DEB7182F80E590E06983C5
:1008B0007A830BD521E041E050E069817A81812F74
:1008C0009AD302D581E090E00F900F90DF91CF9105
:1008D0001F910895CF93DF931F92CDB7DEB7FC0130
:1008E000218D328D232B41F0BE016F5F7F4F808DB4
:1008F000D4DF898190E002C08FEF9FEF0F90DF91EE
:10090000CF910895FF920F931F93CF93DF93F82E0B
:1009100080E590E0DAD4C0E0D0E08F2D26DE8C01B7
:10092000892B19F08F2D21DEEC01C017D107A9F713
:10093000CBD4CE01DF91CF911F910F91FF900895FD
:10094000AF92BF92CF92DF92EF92FF921F93CF931D
:10095000DF93182F5B017A0180E590E0B6D4C0E008
:10096000D0E0812F02DE6C01892B19F0812FFDDD93
:10097000EC01CC15DD05A9F7209799F463E070E050
:10098000812F0E94220F8431E1F08823D1F0C1E051
:10099000D0E08C3111F4C0E0D0E0D195C195D109FF
:1009A00010C0EC16FD060CF4E7011C161D064CF4F5
:1009B00020E0AE01B501812F1ED360E470E0812FED
:1009C0000CD382D4CE01DF91CF911F91FF90EF9095
:1009D000DF90CF90BF90AF900895CF93C82F80E560
:1009E00090E073D460E170E08C2FF7D24FEF62E0BB
:1009F00070E08C2F0E94180FCF9166C4FF920F9366
:100A00001F93CF93DF931F921F92CDB7DEB7F82EBF
:100A10008A012A836983E1DF80E590E056D42A8148
:100A20006981462F422B60E070E08F2D0E94180FE5
:100A30000115110551F400913603109137030F5F32
:100A40001F4F1093370300933603412F64E070E08B
:100A50008F2D0E94180F402F65E070E08F2D0E94AF
:100A6000180F61E070E08F2DB8D22ED481E00F9086
:100A70000F90DF91CF911F910F91FF900895BF923A
:100A8000CF92DF92EF92FF920F931F93CF93DF935A
:100A900000D000D0CDB7DEB7FC01208D243009F0A6
:100AA00050C06A017B018C01B12C63E070E08B2D9A
:100AB0000E94220F811103C0F801B08E06C0883158
:100AC000D9F3B394F4E0BF12F0CFF801808D8430F5
:100AD000C1F196E0E0E1F2E0DE01119601900D92A5
:100AE0009A95E1F7F70193819F779C8394819D8389
:100AF00095819E83B7016E5F7F4F90E0982F882786
:100B000044E050E0845F9B4F82DEB601F801808DA7
:100B10000E94760FF801808D90E0982F882746E09C
:100B200050E0BE016F5F7F4F8A5F9B4F70DEF80120
:100B3000128E118E20E8A60162E0808D5FDF81E0D9
:100B400001C080E026960FB6F894DEBF0FBECDBF81
:100B5000DF91CF911F910F91FF90EF90DF90CF9099
:100B6000BF9008951F93CF93DF931F92CDB7DEB749
:100B7000182F80E590E0A9D363E070E0812F0E94F8
:100B8000220F8983A1D389810F90DF91CF911F918B
:100B90000895CF92DF92EF92FF920F931F93CF931E
:100BA000DF936C017A018B01C0E0D0E0CE15DF0548
:100BB00089F0D8016D918D01D601ED91FC910190E4
:100BC000F081E02DC6011995892B11F47E0102C038
:100BD0002196ECCFC701DF91CF911F910F91FF902C
:100BE000EF90DF90CF900895CF92DF92EF92FF9237
:100BF0000F931F93CF93DF93CDB7DEB7C254D109C4
:100C00000FB6F894DEBF0FBECDBFFC018281938189
:100C1000A481B58123968CAF9DAFAEAFBFAF2397B4
:100C200021E023962FAF239723964CAD5DAD6EAD9B
:100C30007FAD23974BAB5CAB6DAB7EAB89AF9AAF0F
:100C4000ABAFBCAF8DA79EA7AFA7B8AB28AB4DA5E8
:100C50005EA56FA578A94FA358A769A77AA72EAB61
:100C60004BA95CA96DA97EA949A35AA36BA37CA338
:100C70008B8F9C8FAD8FBE8F40EB52E05C8B4B8B8C
:100C80003FEF3D8B3E8B3F8B188E5E874D872AA7AB
:100C9000CFA0D8A4E9A4FAA4CF86D88AE98AFA8A90
:100CA0002CA309A11AA12BA13CA109871A872B8784
:100CB0003C875A8349838B839C83AD83BE836CE2DC
:100CC00071E080E090E0C8DC1FB7F8948091880361
:100CD000811193C06EED71E0FB01849124E232E05A
:100CE000F901449190E0880F991F81579E4FFC01B4
:100CF000A591B4918C91482309F070C0E4E6F1E02D
:100D00004491F9012491FB019491992309F466C05F
:100D1000442309F455C050E0FA013197E231F1055E
:100D200008F04EC08827EE58FF4F8F4F0C94B31237
:100D3000809180008F7707C0809180008F7D03C0F5
:100D400080918000877F809380003AC084B58F7740
:100D500002C084B58F7D84BD33C08091B0008F7791
:100D600003C08091B0008F7D8093B00029C0809136
:100D700090008F7707C0809190008F7D03C0809195
:100D80009000877F809390001BC08091A0008F7798
:100D900007C08091A0008F7D03C08091A000877F55
:100DA0008093A0000DC0809120018F7707C08091B3
:100DB00020018F7D03C080912001877F80932001D7
:100DC000E92FF0E0EE0FFF1FEB58FE4FA591B49115
:100DD0008FB7F8949C91292B2C938FBF85E30E94A9
:100DE0005A108CB580618CBD8CB580648CBD84E359
:100DF0000E945A1083E30E945A10809188038F5FEB
:100E0000809388031FBF249A80E590E05ED260E85B
:100E100080E090E025DD65E58BE190E021DD65E592
:100E20008AE190E01DDD50D280E090E4909342038F
:100E30008093410380E090E690934A0380934903B6
:100E400080E098E4909344038093430380E098E625
:100E500090934C0380934B0380E090E5909346037E
:100E60008093450380E090E790934E0380934D0379
:100E700080E098E5909348038093470380E098E7EB
:100E80009093500380934F0380E590E01ED246E09C
:100E900050E064E072E089E090E0B9DC44E050E0CA
:100EA000BE016D5F7F4F8FE090E0B1DC44E050E029
:100EB000BE01615F7F4F81E090E0A9DC44E050E03B
:100EC000BE016B5E7F4F85E090E0A1DCFDD181E04B
:100ED0008C8789859A85AB85BC85809330049093F7
:100EE0003104A0933204B0933304CE5BDF4F0FB6CE
:100EF000F894DEBF0FBECDBFDF91CF911F910F9150
:100F0000FF90EF90DF90CF9008956115710579F013
:100F1000FB0101900020E9F73197AF01461B570B09
:100F2000DC01ED91FC910280F381E02D199480E0C9
:100F300090E008950F931F93CF93DF938C01C0E04F
:100F4000D0E0F801EC0FFD1F6491662371F0E09191
:100F50009103F09192030190F081E02D81E993E0FB
:100F60001995892B11F02196ECCF67EC72E081E99D
:100F700093E0CBDF8C0F9D1FDF91CF911F910F91DD
:100F800008950F931F93CF93DF93EC01CB01DB0107
:100F9000ED91FC910190F081E02DBE0119958C013D
:100FA00067EC72E0CE01B1DF800F911FDF91CF912E
:100FB0001F910F9108950F931F93CF93DF93EC012F
:100FC000A4DF8C0167EC72E0CE019FDF800F911FE0
:100FD000DF91CF911F910F910895CF93C82F462F86
:100FE00061E070E025D761E070E08C2F2BD7811194
:100FF000FACFCF9108958F929F92AF92BF92CF92E6
:10100000DF92EF92FF920F931F93CF93DF93B82E4F
:101010004B018A01A22E68E270E014D7C82FD0E0FD
:1010200069E270E08B2D0ED7DC2FCC27C82B9E01F8
:101030003770CB2CD12CC601880F991FAC01475BB0
:101040005C4F6A01FA0180819181820F931FA80190
:10105000420F531F4130584090F060E078E07B0130
:10106000E21AF30AA701B401A8DBA8014E195F092F
:10107000B4016E0D7F1DF6018081918102C0A8012F
:10108000B4019BDBA1100CC0C00FD11F4D2F68E233
:1010900070E08B2DCDD64C2F69E270E08B2DC8D639
:1010A000DF91CF911F910F91FF90EF90DF90CF9044
:1010B000BF90AF909F908F9008959F92AF92BF92F4
:1010C000CF92DF92EF92FF920F931F93CF93DF9314
:1010D000982E8B015A01690164E270E0B3D6E82EC4
:1010E000F12C65E270E0892DADD6FE2CEE24E82AC5
:1010F000E701C00FD11F9E013770E92CF12CC70109
:10110000880F991FAC014F5B5C4F7A01FA01808117
:101110009181820F931FA9014C0D5D1D41305840F4
:1011200088F000E018E0021B130BA801B5016FDB8B
:10113000A601401B510BB501600F711FF7018081A3
:10114000918102C0A601B50162DBCC0DDD1D4D2FE2
:1011500064E270E0892D6CD64C2F65E270E0892D39
:10116000DF91CF911F910F91FF90EF90DF90CF9083
:10117000BF90AF909F905CC6FF920F931F93CF9349
:10118000DF93F82EC0E0D0E08F2DF8DA8C01892BA8
:1011900019F08F2DF3DAEC01C017D107A9F7CE01B2
:1011A000DF91CF911F910F91FF9008954F925F9221
:1011B0006F927F92EF92FF920F931F93CF93DF93E3
:1011C000CDB7DEB7A1970FB6F894DEBF0FBECDBF87
:1011D0007C01FA01CB0119A2223008F42AE08E0129
:1011E0000F5D1F4F422E512C612C712CBF01A301AA
:1011F00092010E94BF12F901CA01015011096A301F
:1012000014F4605D01C0695CD8016C93232B242B1E
:10121000252B61F7B801C70178DEA1960FB6F894C7
:10122000DEBF0FBECDBFDF91CF911F910F91FF9019
:10123000EF907F906F905F904F900895CF93DF93E2
:101240001F92CDB7DEB76983DC01ED91FC9102807E
:10125000F381E02D41E050E0BE016F5F7F4F1995B3
:101260000F90DF91CF910895DC01ED91FC91048CFA
:10127000F58DE02D199591E089270895862F089521
:1012800081E086270895CF93DF931F92CDB7DEB715
:1012900041E050E0BE016F5F7F4FFC01848550DB71
:1012A000181619061CF4898190E002C08FEF9FEF99
:1012B0000F90DF91CF910895FC018485843009F06F
:1012C00021CB80E090E0089508958CBD9DBD0895E8
:1012D0008F929F92AF92BF92CF92DF92EF92FF9246
:1012E0000F931F93CF936C015B017A01FC01C485BE
:1012F000C43041F481E090E0F6019383828380E082
:1013000090E043C08A014130584010F000E018E0FE
:1013100080E590E0DADF8C2F2FDF4C0163E070E096
:101320008C2F90D5873111F08C3121F480169106E5
:1013300078F302C000E010E080E590E0C6DF98019D
:10134000A50160E070E08C2FB8DE60E270E08C2FC9
:1013500044DE62E070E08C2F75D584FD0DC063E043
:1013600070E08C2F6FD5811103C08C2F36DBC2CF7C
:1013700080E590E0AADFEDCF40E162E070E08C2FE5
:1013800057D5012B09F4B6CFC701CF911F910F910B
:10139000FF90EF90DF90CF90BF90AF909F908F9095
:1013A0000895CF92DF92FF920F931F93CF93DF9315
:1013B000FC012485243009F06EC06A01EB018C0128
:1013C000F12C8F2DCFDB811103C0F801F48607C00B
:1013D0008B7F8831D1F3F394F4E0FF12F2CFF80160
:1013E0008485843009F457C020910A0230910B02A1
:1013F0002F5F3F4F11F420E030EC30930B0220932D
:101400000A0240910A0250910B0220E061E0F6DAF4
:10141000F801F4848A818F3F51F48B818F3F91F4DE
:101420008C818F3F79F48D818F3F61F431C08111C0
:1014300009C08B81811106C08C81811103C08D810F
:10144000882331F1C114D10419F180E590E03DDF2A
:10145000BE016E5F7F4F8F2D90E0982F882744E06C
:1014600050E0845F9B4FD3D9B6018F2D3FD564E008
:1014700070E08F2DB2DDC80185D5873179F061E04C
:1014800070E080E090E0E8D8C8017CD58111F3CF0E
:1014900084E0F801848780E090E002C081E090E081
:1014A000DF91CF911F910F91FF90DF90CF90089522
:1014B0002F923F924F925F926F927F928F929F9264
:1014C000AF92BF92CF92DF92EF92FF920F931F9352
:1014D000CF93DF93CDB7DEB765970FB6F894DEBF35
:1014E0000FBECDBF7C016B013A01FB0120E080E023
:1014F00090E06AE03191332309F140ED430F4A3027
:1015000080F4689FA001699F500D1124CA01C09703
:10151000830F911D37FD9A958F3F910559F350F335
:1015200013C03E3289F4233079F0D301A20FB11DEC
:1015300012968C932F5F80E090E0DCCF233021F473
:10154000F301858381E01FC0F701428153816481EB
:1015500075818091380490913904A0913A04B0913A
:101560003B04481759076A077B0709F482C1ACD8C6
:101570008701085F1F4F6F7077277C5FC80108D411
:10158000813019F080E090E0D0C180EB92E09A8346
:101590008983F70182819381A481B5818B839C83A8
:1015A000AD83BE8345E350E0BE016F5F7F4FC8014E
:1015B000ACD4892B19F4C12CD12C57C185D8F70193
:1015C000778366837627672776277A83698342E065
:1015D00050E0BE016F5F7F4FC80120D381E090E0F3
:1015E0009E878D8742E050E0BE01635F7F4FC80158
:1015F00015D380E091E09E878D8742E050E0BE01E8
:10160000635F7F4FC8010AD31E861D8642E050E00B
:10161000BE01635F7F4FC80101D342E050E0BE01CD
:10162000635F7F4FC801FAD242E050E0BE01635FC2
:101630007F4FC801F3D25601F5018081882301F163
:10164000F6015F018191811113C045018C189D083D
:101650001814190484F48F8641E050E0BE01615FE4
:101660007F4FC801DBD2A401B601C801D7D203C0A5
:101670008E3239F7EACF6501FFEFCF1ADF0ADCCFF0
:101680001F8641E050E0BE01615F7F4FC801C6D2B6
:10169000C12CDD24D394DE86CD8642E050E0BE012D
:1016A000635F7F4FC801BAD2DE86CD8642E050E04C
:1016B000BE01635F7F4FC801B1D2C801E9D3892B56
:1016C00009F479CF63E0A62EB12CF2E06F0E711C05
:1016D0000E9464031B012C01C80147D21816190689
:1016E000A4F00E946403DC01CB0182199309A409D0
:1016F000B50989389341A105B105D0F462E370E0E2
:1017000080E090E00E942C03E7CFF70142815381F3
:1017100064817581808D918DA28DB38D4817590795
:101720006A077B0741F4848D958DC59721F406C027
:101730002FEF3FEF90C02EEF3FEF8DC0F70181A15B
:1017400092A10C970CF49BC04CE050E0BE016F5F7F
:101750007F4FC801BED18B8190E0982F88272C81C4
:10176000822B9A8B898B298130E0322F22274A8164
:10177000242BF701468157814217530709F07CC09B
:1017800097FF7AC08F709270892B09F0CBC0CF8001
:10179000D12CDC2CCC248885C82AC114D10409F4AE
:1017A000BEC0812C912C8D8190E0982F88272E81AE
:1017B000822B8816990608F465C0812C912C41E093
:1017C00050E0BE016D5E7F4FC80183D18B89982F99
:1017D000907C09F083C0811177C08B898111EFCF94
:1017E00042E050E0BE01615F7F4FC80172D142E02C
:1017F00050E0BE01635F7F4FC8016BD1C80188D143
:10180000C80186D1C80184D1C80182D142E050E02C
:10181000BE016F5E7F4FC8015CD18F8598898115AD
:10182000914009F05FC02D853E853227232732275E
:101830002130310509F056C089899A898115944073
:1018400009F06AC044E050E0B301C8012C8B3D8B25
:1018500040D12C893D896901F1E0AF1AB10829F026
:101860002FEFC216D20609F433CFC8017CD2C601CD
:101870005CC08EEF9FEF59C02CEF3FEFECCF2DEF08
:101880003FEFE9CF41E050E0BE01635F7F4FC80109
:1018900020D18D8581110FC08D858111F3CFC801B5
:1018A00037D1C80135D1C80133D1C80131D1FFEFDB
:1018B0008F1A9F0A78CF8D859FEF980F9D87882379
:1018C00059F3C80125D1F7CF8B899FEF980F9B8BD8
:1018D000882309F482CFC8011BD1F6CFC80118D1E3
:1018E0001B8A7BCF412C512C89899A89982789277B
:1018F00098274816590630F4C8010AD18FEF481AC4
:10190000580AF2CFEFEF8E1A9E0A8C149D0409F04C
:1019100056CF26EF3FEF9FCF27EF3FEF9CCF2AEF29
:101920003FEF99CF2BEF3FEF96CF65960FB6F89428
:10193000DEBF0FBECDBFDF91CF911F910F91FF9002
:10194000EF90DF90CF90BF90AF909F908F907F905F
:101950006F905F904F903F902F900895CF92DF92BD
:10196000EF92FF920F931F93CF93DF93CDB7DEB724
:10197000AF970FB6F894DEBF0FBECDBF7C016A01F2
:1019800000EB12E01A8309831C861B8688EE93E025
:10199000A0E0B0E08D879E87AF87B88B8EE392E0A2
:1019A0009A878987188F0F8B198E1A8E1B8E1C8E23
:1019B00084E089A31DA30CA31EA21FA218A619A62A
:1019C0008091300490913104A0913204B09133049D
:1019D0008CA79DA7AEA7BFA78B839C83AD83BE8337
:1019E00018861F82AE014C5D5F4FCE01019660DD0F
:1019F00081309105B1F4D701ED91FC910484F58516
:101A0000E02D1BA70AA78EA19FA1A8A5B9A58CA709
:101A10009DA7AEA7BFA7A601BE01665D7F4FC70108
:101A20001995AF960FB6F894DEBF0FBECDBFDF910C
:101A3000CF911F910F91FF90EF90DF90CF9008957D
:101A4000CF93DF931F92CDB7DEB76983DC01ED91B1
:101A5000FC910280F381E02D41E050E0BE016F5F18
:101A60007F4F19950F90DF91CF910895FC01818DE3
:101A7000928D0895FC0184899589089520EB32E0C8
:101A8000FC0131832083FB0140895189628973897C
:101A9000FC0142835383648375830895DC01ED91D7
:101AA000FC91008CF18DE02D1994FC019485FB01D3
:101AB0008485981303C081E0943009F480E0089590
:101AC00021E0FC018485843009F420E0822F089510
:101AD0000895CF93DF93FC01218D328D21153105BF
:101AE00019F48FEF9FEF11C0EC014217530708F074
:101AF000A901888D0E94A0041816190694F7298D53
:101B00003A8D281B390B3A8F298FDF91CF91089599
:101B10000F931F93CF93DF931F92CDB7DEB7FC01D6
:101B2000218D328D232B61F08C0141E050E0BE010C
:101B30006F5F7F4F808D0E94A004181619061CF05D
:101B40008FEF9FEF08C0F801818D928D0197928FE2
:101B5000818F898190E00F90DF91CF911F910F913C
:101B60000895FC0184850C94A0040F931F93CF93D8
:101B7000DF93CDB7DEB728970FB6F894DEBF0FBE60
:101B8000CDBF8C01F801818D928D892B49F0D80150
:101B9000ED91FC910680F781E02DC8011995F2CFF7
:101BA000808D0E948204181619065CF548E050E00A
:101BB000BE016F5F7F4FD80158968C910E94A004A0
:101BC0009C0118161906DCF489819A81AB81BC81CD
:101BD000F801808B918BA28BB38B8D8190E0982F35
:101BE00088272E81820F911D958B848B2F8130E069
:101BF000322F22278885280F311D328F218FC9016E
:101C000002C080E090E028960FB6F894DEBF0FBEC9
:101C1000CDBFDF91CF911F910F910895AF92BF92E9
:101C2000CF92DF92FF920F931F93CF93DF938C019C
:101C30005B01EA01FC01C688D788F08C80E590E062
:101C400044DB8F2D99DA8C179D0718F48F2D94DAC9
:101C5000EC019E01A501B6018F2D2FDA35DBF801CD
:101C6000868997898C0F9D1F978B868BCE01DF917C
:101C7000CF911F910F91FF90DF90CF90BF90AF90C9
:101C80000895CF92DF92EF92FF920F931F93CF931D
:101C9000DF93CDB7DEB7AF970FB6F894DEBF0FBEB8
:101CA000CDBF7C016A0100EB12E01A8309831C8618
:101CB0001B8688EE93E0A0E0B0E08D879E87AF871B
:101CC000B88B8EE392E09A878987188F0F8B198ED5
:101CD0001A8E1B8E1C8E84E089A31DA30CA31EA24A
:101CE0001FA218A619A68091300490913104A091EA
:101CF0003204B09133048CA79DA7AEA7BFA78B83F6
:101D00009C83AD83BE8318861F82AE014C5D5F4FFE
:101D1000CE010196CDDB81309105B1F4D701ED9173
:101D2000FC910088F189E02D1BA70AA78EA19FA135
:101D3000A8A5B9A58CA79DA7AEA7BFA7A601BE0160
:101D4000665D7F4FC7011995AF960FB6F894DEBF59
:101D50000FBECDBFDF91CF911F910F91FF90EF90FC
:101D6000DF90CF900895CF93DF93EC01888D84307E
:101D700061F00E94ED04E88DF0E0EE0FFF1FE757E1
:101D8000FC4F1182108284E0888FDF91CF910895FB
:101D9000EF92FF921F93CF93DF93FC01208D2430AD
:101DA00011F080E01CC07B01EC0110E0812F0E944B
:101DB000B205811102C0188F05C08831E1F31F5FA1
:101DC0001430A1F7888D843061F3FD86EC861A8E7D
:101DD000198E20E0A70162E00E94FE0481E0DF91FD
:101DE000CF911F91FF90EF9008950F931F93CF9382
:101DF000DF931F92CDB7DEB78C01DC01ED91FC9132
:101E00000480F581E02D1995892B51F0BE016F5F9B
:101E10007F4FF80184850E944D04898190E002C0C3
:101E20008FEF9FEF0F90DF91CF911F910F9108954A
:101E30009B0190E00496982F8827642F820F931FB0
:101E40000C9430040F931F93CF93DF931F92CDB761
:101E5000DEB790E00496982F88278C01060F171F95
:101E60000E94BC038FE00E94D603812F0E94D603FC
:101E7000802F0E94D60380E00E94D60389830E94AF
:101E8000BA0389810F90DF91CF911F910F9108952F
:101E9000CF93FC01C08D80E590E017DA60E270E03E
:101EA0008C2F9BD862E070E08C2FCCDF84FD14C0B7
:101EB00062E070E08C2FC6DF83FF09C048E162E07A
:101EC00070E08C2FB5DF00DA80E090E00DC0FCD927
:101ED00080E590E0FAD9E6CF40E162E070E08C2F37
:101EE000A7DFF2D981E090E0CF910895CF93DF93FF
:101EF000C82FD62F472F60E170E09ADF4D2F61E1A8
:101F000070E08C2FDF91CF9193CFFF920F931F93AF
:101F1000CF93DF93FB01DC0157961C921E925697DC
:101F20005896FC908281811109C08381811106C07D
:101F30008481811103C085818823E1F04115510519
:101F4000C9F08A01EF0180E590E0BFD9BE016E5F64
:101F50007F4F2F2D30E0922F882744E050E0845FA0
:101F60009B4F0E940704B8018F2DC0DFADD981E0DF
:101F700090E002C080E090E0DF91CF911F910F913F
:101F8000FF900895FC018485843011F00C94B20513
:101F900080E00895CF93DF93FC0124852430C9F0BD
:101FA000EC01F0DF843181F0882371F0883161F039
:101FB0008C3161F4E881F9810480F581E02DCE0156
:101FC000199521E0892B19F420E001C021E0822F2E
:101FD00001C080E0DF91CF910895CF92DF92EF9220
:101FE000FF921F93CF93DF93FC011485143091F17E
:101FF000EC0180E590E069D968E070E0812F0E94F3
:10200000ED0762D90E9464036B017C01CE01BADF47
:102010008823B1F061E070E080E090E00E942C0342
:102020000E946403DC01CB018C199D09AE09BF0934
:10203000883E9340A105B10548F38C850E94ED04CC
:10204000EC85F0E0EE0FFF1FE757FC4F1182108286
:1020500084E08C87DF91CF911F91FF90EF90DF900C
:10206000CF900895E1E9F3E0A089B18982E08C93F3
:10207000A485B5851C92A685B7858FEC8C93108EB0
:10208000A489B58986E08C93A289B3898C918061FB
:102090008C93A289B3898C9188608C93A289B3892F
:1020A0008C9180688C930288F389E02D80818F7DEC
:1020B0008083089590E0FC01E151FE4F2491FC01E2
:1020C000E755FE4F8491882399F090E0880F991F7F
:1020D000FC01E157FE4FA591B491FC01EB58FE4F76
:1020E000859194918FB7F894EC91E22BEC938FBF8C
:1020F0000895CF93DF9300D000D0CDB7DEB77894AA
:1021000084B5826084BD84B5816084BD85B58260FC
:1021100085BD85B5816085BD80916E0081608093AD
:102120006E00109281008091810082608093810016
:102130008091810081608093810080918000816026
:10214000809380008091B10084608093B100809181
:10215000B00081608093B000809191008260809394
:102160009100809191008160809391008091900016
:102170008160809390008091A10082608093A10093
:102180008091A10081608093A1008091A000816076
:102190008093A00080912101826080932101809131
:1021A00021018160809321018091200181608093D1
:1021B000200180917A00846080937A0080917A0077
:1021C000826080937A0080917A00816080937A00A7
:1021D00080917A00806880937A001092C1001092FA
:1021E0008403109285031092860310928703109245
:1021F000520310925303109254031092550360ED52
:1022000077E080E090E00E942C0381E993E09093D6
:1022100083038093820326DF0E94640300915203AC
:10222000109153032091540330915503DC01CB01ED
:10223000801B910BA20BB30B84369105A105B10550
:1022400038F463E070E080E090E00E942C03E4CF7B
:102250000E9464036093520370935303809354036A
:102260009093550368EB72E0809182039091830311
:102270000E9485076AE070E080E090E00E942C03F5
:1022800081E080935603EEDE6AEC72E081E993E030
:102290000E94DB0788E091E00E949A0700EB12E0C1
:1022A0001A8309838091510490915204A0915304A0
:1022B000B09154048B839C83AD83BE83CE01019681
:1022C0000E94F40561EE72E081E993E00E948507C7
:1022D0001A8309831B821C821D821E8280E590E086
:1022E0000E94650944E050E0BE016D5F7F4F8FE0C2
:1022F00090E00E94DD030E946409BE016F5F7F4F82
:1023000081E993E00E94C10768EE73E080E090E00D
:102310000E942C0381E993E00E947001892B09F44B
:1023200073C081E993E00E944E018136910509F066
:102330006BC01A8309838091000290910102A091E1
:102340000202B09103028B839C83AD83BE8340E580
:1023500050E0BE016F5F7F4F8CE394E022D8892B61
:1023600059F161EF72E081E993E00E94DB076EE0D2
:1023700073E08CE394E00E94850762E173E08CE3F4
:1023800094E00E94DB076CE173E08CE394E00E9430
:10239000850769E474E08CE394E00E94C10763E27E
:1023A00073E08CE394E00E94DB0767EC72E08CE35F
:1023B00094E00E9485071AC08DE191E00E949A077F
:1023C00015C08CE394E00E945C09892B79F08CE3C2
:1023D00094E00E944309E0919103F09192030190EF
:1023E000F081E02D682F81E993E019958CE394E06A
:1023F000D1DD8111E6CF67EC72E081E993E00E94C4
:1024000085078CE394E0E9DD0E940D0283CFE5E5CA
:10241000F4E080EB92E09183808312821382148235
:102420001582E1E9F3E01382128248EE53E060E0A6
:1024300070E0448355836683778324E632E03183FA
:10244000208325EC30E03587248724EC30E0378783
:10245000268720EC30E0318B208B21EC30E0338B71
:10246000228B22EC30E0358B248B26EC30E0378B4E
:10247000268B118E128E138E148EEBE5F4E0918371
:1024800080831282138214821582E1E6F4E0918344
:1024900080831282138214821582E7E6F4E091832E
:1024A00080831282138214821582EDE6F4E0918318
:1024B00080831282138214821582EEE2F4E091830B
:1024C00080831282138214821582E6E3F4E0918302
:1024D00080831282138214821582E3E7F4E09183F1
:1024E00080831282138214821582E5E8F4E09183DE
:1024F00080831282138214821582EFE7F4E09183C5
:10250000808320EC228330E83383148231E03583EA
:10251000E9E7F4E0918380833FEF328333831482D1
:102520001582EFE4F4E091838083228338EA3383D9
:102530001482AAE0A583E9E4F4E0918380832283F6
:10254000338314828BE08583ECE3F4E01382128200
:1025500044835583668377838CE892E091838083FC
:1025600084E084870895EE0FFF1F881F8BBF0790BC
:10257000F691E02D199481E090E0F89422C0A1E258
:102580001A2EAA1BBB1BFD010DC0AA1FBB1FEE1FED
:10259000FF1FA217B307E407F50720F0A21BB30B38
:1025A000E40BF50B661F771F881F991F1A9469F7B4
:1025B00060957095809590959B01AC01BD01CF0110
:0625C0000895F894FFCF1E
:1025C600C0A8000B18037352069C00C0010000004F
:1025D60001005E00000000000000B302B302B30277
:1025E600B302B302B302B302B302B302B302B3023D
:1025F600B302B302B302B302B30200000000200D1F
:102606000E0E360D880D6A046A02C80EB30E850FCB
:10261600410E480FB50D690D4E0D3E0D3A0D3F05A5
:1026260000000000A601C90570014E016201EC011F
:1026360000000000B302C905B302B302B302B3023D
:1026460000000000B302C905000000001E09680969
:102656005C094309F50E680DD109AE0CB10DED0FFD
:10266600CA0F600D40093E09550D340900000000EF
:102676006B0200000000B302564D4450565F317C99
:10268600315F564D4450560D0A0053657474696E99
:10269600672075702045746865726E65742E2E2EDF
:1026A600004D7920495020616464726573733A2045
:1026B6000047657474696E67206461746120667290
:1026C6006F6D207468696E67737065616B0047454E
:1026D600540020485454502F312E3100486F7374E3
:1026E6003A2000436F6E6E656374696F6E3A2063BD
:0626F6006C6F736500002B
:00000001FF
